{
  "_format": "hh-sol-artifact-1",
  "contractName": "ExecutorModule",
  "sourceName": "contracts/ExecutorModule.sol",
  "abi": [
    {
      "inputs": [
        {
          "internalType": "address",
          "name": "_safe",
          "type": "address"
        }
      ],
      "stateMutability": "nonpayable",
      "type": "constructor"
    },
    {
      "inputs": [
        {
          "internalType": "address",
          "name": "to",
          "type": "address"
        },
        {
          "internalType": "uint256",
          "name": "value",
          "type": "uint256"
        },
        {
          "internalType": "bytes",
          "name": "data",
          "type": "bytes"
        },
        {
          "internalType": "bytes",
          "name": "signatures",
          "type": "bytes"
        }
      ],
      "name": "execute",
      "outputs": [],
      "stateMutability": "nonpayable",
      "type": "function"
    },
    {
      "inputs": [],
      "name": "safe",
      "outputs": [
        {
          "internalType": "contract IGnosisSafe",
          "name": "",
          "type": "address"
        }
      ],
      "stateMutability": "view",
      "type": "function"
    }
  ],
  "bytecode": "0x608060405234801561001057600080fd5b506040516106d03803806106d0833981810160405281019061003291906100db565b806000806101000a81548173ffffffffffffffffffffffffffffffffffffffff021916908373ffffffffffffffffffffffffffffffffffffffff16021790555050610108565b600080fd5b600073ffffffffffffffffffffffffffffffffffffffff82169050919050565b60006100a88261007d565b9050919050565b6100b88161009d565b81146100c357600080fd5b50565b6000815190506100d5816100af565b92915050565b6000602082840312156100f1576100f0610078565b5b60006100ff848285016100c6565b91505092915050565b6105b9806101176000396000f3fe608060405234801561001057600080fd5b50600436106100365760003560e01c8063186f03541461003b578063da0980c714610059575b600080fd5b610043610075565b60405161005091906101d6565b60405180910390f35b610073600480360381019061006e91906102d4565b610099565b005b60008054906101000a900473ffffffffffffffffffffffffffffffffffffffff1681565b60008054906101000a900473ffffffffffffffffffffffffffffffffffffffff1673ffffffffffffffffffffffffffffffffffffffff16636a761202878787876000806000806000808d8d6040518d63ffffffff1660e01b815260040161010b9c9b9a99989796959493929190610470565b6020604051808303816000875af115801561012a573d6000803e3d6000fd5b505050506040513d601f19601f8201168201806040525081019061014e9190610556565b50505050505050565b600073ffffffffffffffffffffffffffffffffffffffff82169050919050565b6000819050919050565b600061019c61019761019284610157565b610177565b610157565b9050919050565b60006101ae82610181565b9050919050565b60006101c0826101a3565b9050919050565b6101d0816101b5565b82525050565b60006020820190506101eb60008301846101c7565b92915050565b600080fd5b600080fd5b600061020682610157565b9050919050565b610216816101fb565b811461022157600080fd5b50565b6000813590506102338161020d565b92915050565b6000819050919050565b61024c81610239565b811461025757600080fd5b50565b60008135905061026981610243565b92915050565b600080fd5b600080fd5b600080fd5b60008083601f8401126102945761029361026f565b5b8235905067ffffffffffffffff8111156102b1576102b0610274565b5b6020830191508360018202830111156102cd576102cc610279565b5b9250929050565b600080600080600080608087890312156102f1576102f06101f1565b5b60006102ff89828a01610224565b965050602061031089828a0161025a565b955050604087013567ffffffffffffffff811115610331576103306101f6565b5b61033d89828a0161027e565b9450945050606087013567ffffffffffffffff8111156103605761035f6101f6565b5b61036c89828a0161027e565b92509250509295509295509295565b610384816101fb565b82525050565b61039381610239565b82525050565b600082825260208201905092915050565b82818337600083830152505050565b6000601f19601f8301169050919050565b60006103d68385610399565b93506103e38385846103aa565b6103ec836103b9565b840190509392505050565b6000819050919050565b600060ff82169050919050565b600061042961042461041f846103f7565b610177565b610401565b9050919050565b6104398161040e565b82525050565b600061045a610455610450846103f7565b610177565b610239565b9050919050565b61046a8161043f565b82525050565b600061014082019050610486600083018f61037b565b610493602083018e61038a565b81810360408301526104a6818c8e6103ca565b90506104b5606083018b610430565b6104c2608083018a610461565b6104cf60a0830189610461565b6104dc60c0830188610461565b6104e960e083018761037b565b6104f761010083018661037b565b81810361012083015261050b8184866103ca565b90509d9c50505050505050505050505050565b60008115159050919050565b6105338161051e565b811461053e57600080fd5b50565b6000815190506105508161052a565b92915050565b60006020828403121561056c5761056b6101f1565b5b600061057a84828501610541565b9150509291505056fea2646970667358221220962edf81b24168010e042bfc92ff751abb48998567668ddbcb4435db13ff3da164736f6c634300081a0033",
  "linkReferences": {},
  "deployedLinkReferences": {}
}