{
  "_format": "hh-sol-artifact-1",
  "contractName": "ProposalRegistry",
  "sourceName": "contracts/ProposalRegistry.sol",
  "abi": [
    {
      "inputs": [
        {
          "internalType": "uint256",
          "name": "id",
          "type": "uint256"
        }
      ],
      "name": "markExecuted",
      "outputs": [],
      "stateMutability": "nonpayable",
      "type": "function"
    },
    {
      "inputs": [],
      "name": "nextId",
      "outputs": [
        {
          "internalType": "uint256",
          "name": "",
          "type": "uint256"
        }
      ],
      "stateMutability": "view",
      "type": "function"
    },
    {
      "inputs": [
        {
          "internalType": "uint256",
          "name": "",
          "type": "uint256"
        }
      ],
      "name": "proposals",
      "outputs": [
        {
          "internalType": "uint256",
          "name": "id",
          "type": "uint256"
        },
        {
          "internalType": "address",
          "name": "proposer",
          "type": "address"
        },
        {
          "internalType": "string",
          "name": "hash",
          "type": "string"
        },
        {
          "internalType": "bool",
          "name": "executed",
          "type": "bool"
        }
      ],
      "stateMutability": "view",
      "type": "function"
    },
    {
      "inputs": [
        {
          "internalType": "string",
          "name": "hash",
          "type": "string"
        }
      ],
      "name": "register",
      "outputs": [
        {
          "internalType": "uint256",
          "name": "",
          "type": "uint256"
        }
      ],
      "stateMutability": "nonpayable",
      "type": "function"
    }
  ],
  "bytecode": "0x6080604052348015600f57600080fd5b506109848061001f6000396000f3fe608060405234801561001057600080fd5b506004361061004c5760003560e01c8063013cf08b1461005157806361b8ce8c14610084578063f2c298be146100a2578063f6405119146100d2575b600080fd5b61006b60048036038101906100669190610389565b6100ee565b60405161007b94939291906104b1565b60405180910390f35b61008c6101d3565b60405161009991906104fd565b60405180910390f35b6100bc60048036038101906100b7919061057d565b6101d9565b6040516100c991906104fd565b60405180910390f35b6100ec60048036038101906100e79190610389565b610318565b005b60006020528060005260406000206000915090508060000154908060010160009054906101000a900473ffffffffffffffffffffffffffffffffffffffff169080600201805461013d906105f9565b80601f0160208091040260200160405190810160405280929190818152602001828054610169906105f9565b80156101b65780601f1061018b576101008083540402835291602001916101b6565b820191906000526020600020905b81548152906001019060200180831161019957829003601f168201915b5050505050908060030160009054906101000a900460ff16905084565b60015481565b6000604051806080016040528060015481526020013373ffffffffffffffffffffffffffffffffffffffff16815260200184848080601f016020809104026020016040519081016040528093929190818152602001838380828437600081840152601f19601f8201169050808301925050505050505081526020016000151581525060008060015481526020019081526020016000206000820151816000015560208201518160010160006101000a81548173ffffffffffffffffffffffffffffffffffffffff021916908373ffffffffffffffffffffffffffffffffffffffff16021790555060408201518160020190816102d59190610805565b5060608201518160030160006101000a81548160ff0219169083151502179055509050506001600081548092919061030c90610906565b91905055905092915050565b600160008083815260200190815260200160002060030160006101000a81548160ff02191690831515021790555050565b600080fd5b600080fd5b6000819050919050565b61036681610353565b811461037157600080fd5b50565b6000813590506103838161035d565b92915050565b60006020828403121561039f5761039e610349565b5b60006103ad84828501610374565b91505092915050565b6103bf81610353565b82525050565b600073ffffffffffffffffffffffffffffffffffffffff82169050919050565b60006103f0826103c5565b9050919050565b610400816103e5565b82525050565b600081519050919050565b600082825260208201905092915050565b60005b83811015610440578082015181840152602081019050610425565b60008484015250505050565b6000601f19601f8301169050919050565b600061046882610406565b6104728185610411565b9350610482818560208601610422565b61048b8161044c565b840191505092915050565b60008115159050919050565b6104ab81610496565b82525050565b60006080820190506104c660008301876103b6565b6104d360208301866103f7565b81810360408301526104e5818561045d565b90506104f460608301846104a2565b95945050505050565b600060208201905061051260008301846103b6565b92915050565b600080fd5b600080fd5b600080fd5b60008083601f84011261053d5761053c610518565b5b8235905067ffffffffffffffff81111561055a5761055961051d565b5b60208301915083600182028301111561057657610575610522565b5b9250929050565b6000806020838503121561059457610593610349565b5b600083013567ffffffffffffffff8111156105b2576105b161034e565b5b6105be85828601610527565b92509250509250929050565b7f4e487b7100000000000000000000000000000000000000000000000000000000600052602260045260246000fd5b6000600282049050600182168061061157607f821691505b602082108103610624576106236105ca565b5b50919050565b7f4e487b7100000000000000000000000000000000000000000000000000000000600052604160045260246000fd5b60008190508160005260206000209050919050565b60006020601f8301049050919050565b600082821b905092915050565b6000600883026106bb7fffffffffffffffffffffffffffffffffffffffffffffffffffffffffffffffff8261067e565b6106c5868361067e565b95508019841693508086168417925050509392505050565b6000819050919050565b60006107026106fd6106f884610353565b6106dd565b610353565b9050919050565b6000819050919050565b61071c836106e7565b61073061072882610709565b84845461068b565b825550505050565b600090565b610745610738565b610750818484610713565b505050565b5b818110156107745761076960008261073d565b600181019050610756565b5050565b601f8211156107b95761078a81610659565b6107938461066e565b810160208510156107a2578190505b6107b66107ae8561066e565b830182610755565b50505b505050565b600082821c905092915050565b60006107dc600019846008026107be565b1980831691505092915050565b60006107f583836107cb565b9150826002028217905092915050565b61080e82610406565b67ffffffffffffffff8111156108275761082661062a565b5b61083182546105f9565b61083c828285610778565b600060209050601f83116001811461086f576000841561085d578287015190505b61086785826107e9565b8655506108cf565b601f19841661087d86610659565b60005b828110156108a557848901518255600182019150602085019450602081019050610880565b868310156108c257848901516108be601f8916826107cb565b8355505b6001600288020188555050505b505050505050565b7f4e487b7100000000000000000000000000000000000000000000000000000000600052601160045260246000fd5b600061091182610353565b91507fffffffffffffffffffffffffffffffffffffffffffffffffffffffffffffffff8203610943576109426108d7565b5b60018201905091905056fea26469706673582212202866b17469fde7cbab7468427d4b90d6800b3e2741fc2107535d8db0e69c76db64736f6c634300081a0033",
  "linkReferences": {},
  "deployedLinkReferences": {}
}